:020000040800F2
:10000000E0060020BD010008C5010008C701000886
:10001000C9010008CB010008CD0100080000000064
:10002000000000000000000000000000CF010008F8
:10003000D101000800000000D3010008D50100082C
:10004000D7010008D7010008D7010008D701000830
:10005000D7010008D7010008D7010008D701000820
:10006000D7010008D7010008D7010008D701000810
:10007000D7010008D7010008D7010008D701000800
:10008000D7010008D7010008D701000800000000D0
:10009000000000000000000000000000D701000880
:1000A000D7010008D7010008D7010008D7010008D0
:1000B000D701000845090008D7010008D70100084A
:1000C000D7010008D7010008D7010008D7010008B0
:1000D000D7010008D7010008D7010008D7010008A0
:1000E000D7010008D7010008D70100080000000070
:1000F0000000000000000000000000000000000000
:1001000000000000000000000000000000000000EF
:100110000000000000000000D7010008D70100081F
:1001200000F002F800F03AF80AA090E8000C8244CF
:100130008344AAF10107DA4501D100F02FF8AFF2AC
:10014000090EBAE80F0013F0010F18BFFB1A43F0B5
:10015000010318474C1200006C120000103A24BF33
:1001600078C878C1FAD8520724BF30C830C144BF1C
:1001700004680C607047000000230024002500265E
:10018000103A28BF78C1FBD8520728BF30C148BFFA
:100190000B6070471FB51FBD10B510BD00F031F8E2
:1001A0001146FFF7F7FF00F039FD00F04FF803B4F8
:1001B000FFF7F2FF03BC00F057F800000948804742
:1001C00009480047FEE7FEE7FEE7FEE7FEE7FEE739
:1001D000FEE7FEE7FEE7FEE704480549054A064B51
:1001E00070470000E108000821010008E00000203D
:1001F000E0060020E0020020E00200207047704787
:100200007047754600F02CF8AE4605006946534627
:1002100020F00700854618B020B5FFF7DDFFBDE8E8
:1002200020404FF000064FF000074FF000084FF05D
:10023000000B21F00701AC46ACE8C009ACE8C009EE
:10024000ACE8C009ACE8C0098D46704710B504465B
:10025000AFF300802046BDE81040FFF7A8BF0000C4
:10026000004870477C00002001491820ABBEFEE723
:1002700026000200704721B1826842F001028260CC
:1002800003E0826822F001028260704721B1826837
:1002900042F48072826003E0826822F4807282609D
:1002A0007047014600208A6802F004020AB101206A
:1002B00000E000207047014600208A6802F0080232
:1002C0000AB1012000E000207047000030B502466E
:1002D0000020002350680F4C20400D790C6844EA40
:1002E00005242043506090680B4C2040D1E9025413
:1002F0002C434D7944EA450420439060D06A20F4B1
:1003000070000C7C641EE4B2234340EA0350D062C8
:1003100030BD0000FFFEF0FFFDF7F1FFF0B5044631
:100320000D4600200021092D11DDE068A5F10A0627
:1003300006EB4607072606FA07F18843A5F10A06E9
:1003400006EB460603FA06F10843E0600CE020697C
:1003500005EB4507072606FA07F1884305EB450636
:1003600003FA06F108432061072A0FDA606B561E74
:1003700006EB86071F2606FA07F18843561E06EB92
:10038000860605FA06F10843606322E00D2A0FDABB
:10039000206BD61F06EB86071F2606FA07F1884357
:1003A000D61F06EB860605FA06F10843206310E027
:1003B000E06AA2F10D0606EB86071F2606FA07F192
:1003C0008843A2F10D0606EB860605FA06F10843FE
:1003D000E062F0BD816841F008018160704721B1A1
:1003E000826842F4A002826003E0826822F4A002E4
:1003F00082607047816841F004018160704721B1DB
:10040000026842F00102026004E002684FF6FE73E7
:100410001A4002607047000001684FF6FE721140FA
:1004200001600021016041608160C1604B498842E8
:1004300008D14A490839496841F00F01474A083A4A
:1004400051608AE045491431884208D1434908394E
:10045000496841F0F001414A083A51607DE03F4966
:100460002831884208D13D490839496841F4706112
:100470003A4A083A516070E038493C31884208D124
:1004800036490839496841F47041344A083A5160A4
:1004900063E032495031884208D13049083949680F
:1004A00041F470212D4A083A516056E02B496431DD
:1004B000884208D129490839496841F47001274A1E
:1004C000083A516049E025497831884208D12349EA
:1004D0000839496841F07061204A083A51603CE0AF
:1004E0001F49884206D1011F096841F00F01021F10
:1004F000116032E01A491431884208D11849091FA5
:10050000096841F0F001164A121F116025E01449F4
:100510002831884208D11249091F096841F47061E5
:100520000F4A121F116018E00D493C31884208D172
:100530000B49091F096841F47041094A121F1160F3
:100540000BE007495031884207D10549091F096866
:1005500041F47021024A121F1160704708000240E6
:100560000804024010B50022026847F6F0739A436F
:100570000C6A8B6823430C6923434C6923438C69C1
:100580002343CC6923434C6A23438C6A23431A4395
:100590000260CB6843600B6883604B68C36010BD2A
:1005A00008B5C020ADF8000018208DF80300032026
:1005B0008DF802006946074800F010F81020ADF8E9
:1005C000000000208DF803006946034800F006F89B
:1005D00008BD000000080140001001402DE9F04175
:1005E000024600250026002000230024002791F861
:1005F00003C00CF00F0591F803C00CF0100CBCF117
:10060000000F03D091F802C04CEA050591F800C034
:10061000BCF1000F31D0146800202BE04FF0010C2A
:100620000CFA00F3B1F800C00CEA03069E4220D198
:1006300083004FF00F0C0CFA03F7BC4305FA03FCE0
:100640004CEA040491F803C0BCF1280F06D14FF026
:10065000010C0CFA00FCC2F814C00AE091F803C0C7
:10066000BCF1480F05D14FF0010C0CFA00FCC2F8A8
:1006700010C0401C0828D1D31460B1F800C0BCF1F0
:10068000FF0F34DD546800202EE000F1080C4FF01D
:10069000010808FA0CF3B1F800C00CEA03069E4208
:1006A00021D183004FF00F0C0CFA03F7BC4305FA7D
:1006B00003FC4CEA040491F803C0BCF1280F05D1F7
:1006C00000F1080C08FA0CF8C2F8148091F803C085
:1006D000BCF1480F07D100F1080C4FF0010808FAEF
:1006E0000CF8C2F81080401C0828CED35460BDE836
:1006F000F08108B51D208DF8000000208DF8010064
:1007000001208DF802008DF80300684600F002F821
:1007100008BD000070B5002100230F22C47804B387
:10072000154C246804F4E064C4F5E064210AC1F1C6
:100730000403CA40447804FA03F184781440214346
:1007400009010E4C0678A155047804F01F05012418
:10075000AC4005786D11AD0005F1E025C5F800410C
:1007600009E0047804F01F050124AC40044D06782C
:10077000761145F8264070BD0CED00E000E400E085
:1007800080E100E001460020034A506820F4404028
:1007900008435060704700000010024029B1064A2B
:1007A00052690243044B5A6104E0034A526982438E
:1007B000014B5A61704700000010024029B1064AFF
:1007C000D2690243044BDA6104E0034AD2698243EE
:1007D000014BDA61704700000010024029B1064A5F
:1007E00092690243044B9A6104E0034A926982438E
:1007F000014B9A61704700000010024010B50121C2
:100800000220FFF7DBFF0020FFF7BCFF01210846B5
:10081000FFF7C4FF012140F21D20FFF7DFFF10BDED
:1008200010B500F001F810BD0CB50020019000904B
:100830002A48006840F480302849086000BF2748F3
:10084000006800F4003000900198401C019000986E
:1008500018B90198B0F5A06FF1D12048006800F4F4
:10086000003010B10120009001E0002000900098BD
:10087000012831D119484068184948600846406845
:1008800048600846406848600846406820F47C108C
:1008900048600846406840F4981048600846006880
:1008A00040F08070086000BF0C48006800F00070E5
:1008B0000028F9D00948406820F003000749486043
:1008C0000846406840F00200486000BF03484068A6
:1008D00000F00C000828F9D10CBD00000010024007
:1008E00010B51448006840F001001249086008463D
:1008F0004068114908400F494860084600680F49A0
:1009000008400C4908600846006820F48020086010
:100910000846406820F4FE0048604FF41F008860DD
:100920000020C862FFF77CFF4FF0006004490860B8
:1009300010BD0000001002400000FFF8FFFFF6FEAF
:1009400008ED00E02DE9F0471748008800F0ACFB07
:1009500006460022154B00F04FFA04460022144BC5
:1009600000F0B6FB804600F015FA12490860084610
:10097000006800F0ABFC401C0F4908800846008866
:100980000E49C880002008810D4800F03FF8022081
:100990000A4908810A4800F08FF80121084800F050
:1009A0001DF8BDE8F0870000040000200000B04002
:1009B0000068854008000020000000202A00002078
:1009C0000004004021B1028842F08002028004E06D
:1009D00002884FF67F731A4002807047CA43028232
:1009E000704721B1028842F00102028004E00288CF
:1009F0004FF6FE731A40028070471AB183890B4389
:100A0000838102E083898B438381704770B5002422
:100A100000220023058C4FF6FE7635400584028CBB
:100A20008388048B4FF68F752C40B51E2C400D88A3
:100A30002C43751E2A400D892A434D882A43144DA4
:100A4000A8420BD0134DA84208D0134DA84205D0A0
:100A5000124DA84202D0124DA84213D14FF6F7759D
:100A60002A404D892A434FF6FB752A408D882A4338
:100A70004FF6FF652B404FF6FF552B408D892B43DA
:100A8000CD892B4383800483CD888586028470BD05
:100A9000002C01400034014000400140004401406E
:100AA000004801400A460021018B4FF6F7731940B8
:100AB000114301837047000070B500240022002319
:100AC000058C4FF6EF7635400584028C8388048BC5
:100AD00048F6FF752C404FF6FF452C400D884FF629
:100AE000FF7606EA05252C434FF6DF752A400D896F
:100AF00006EA05152A434D8806EA05152A43154DD1
:100B0000A84202D0144DA8421DD14FF67F752A404D
:100B10004D894FF6FF7606EA05152A434FF6BF7555
:100B20002A408D8806EA05152A434FF6FF352B40EB
:100B30004FF2FF752B408D8906EA85052B43CD8941
:100B400006EA85052B4383800483CD8805870284CC
:100B500070BD0000002C0140003401400A46002115
:100B6000018B4FF2FF7319404FF6FF7303EA022324
:100B70001943018370470000002202881D4B9842F0
:100B80000ED01D4B98420BD0B0F1804F08D01B4BBC
:100B9000984205D01A4B984202D01A4B984204D181
:100BA0004FF68F731A404B881A43174B984207D061
:100BB000164B984204D04FF6FF431A40CB881A4395
:100BC00002808B8883850B8803850A4B98420BD063
:100BD000094B984208D00E4B984205D00D4B9842D5
:100BE00002D00D4B984201D10B7A038601238382F8
:100BF00070470000002C0140003401400004004018
:100C000000080040000C00400010004000140040AC
:100C1000004001400044014000480140FFF7EEFD64
:100C2000FFF767FDFFF7BCFC4E4800684E49B0FB7C
:100C3000F1F0401E4D49088040F2AD204C498880BB
:100C40004A48008808800020C88048804948FFF74B
:100C500093FF602048490880012048804748008869
:100C6000C880002008814348FFF7D0FE0821414892
:100C7000FFF718FF0220404908813E48FFF71CFF9C
:100C800008213C48FFF76AFF01213A48FFF79AFE26
:100C90003B48FFF7C1FB3B483B4908603B48486085
:100CA000002088600120C8600020086148614FF47E
:100CB000807088618000C86120200862000248625C
:100CC000002088622E48FFF74DFC01212C48FFF7D9
:100CD00096FB00202E4908600120087148714FF4EE
:100CE000602088600020C8600120087425484C38C6
:100CF000FFF7ECFA052301220E2122484C38FFF7BA
:100D00000DFB01211F484C38FFF7C0FA01211D4897
:100D10004C38FFF7B0FA1B484C38FFF75BFB00BFBD
:100D200018484C38FFF7C7FA0028F9D115484C3855
:100D3000FFF760FB00BF13484C38FFF7B2FA0028FA
:100D4000F9D101210F484C38FFF749FB0122114628
:100D50000848FFF752FE01210648FFF742FE00BF98
:100D6000FEE700000C00002000366E0102000020AB
:100D700020000020000400402A0000200000002085
:100D8000080002404C2401405000002004000020D4
:100D90003C00002021F00042A2F16052B2F5801F19
:100DA00001F0004328BFD2F17F6C0BD95FEA001C31
:100DB00043EAC20242EB507018BF704728BF20F0D0
:100DC00001007047B2F5801FBCBF184670474FEA5C
:100DD000410C1CF5001F02D2084600F0DCBA70B5C9
:100DE00000F020FA00000089FFF7F6BF4FF0004046
:100DF000A0F58000704700002DE9C04130B4DFF855
:100E0000A0C23CEA111418BF3CEA131400F0EC80B5
:100E100081EA03051CEA111444EAD57418BF1CEAE0
:100E2000131500F0C780A4EB05044FF0004545EA18
:100E3000C12145EAC32341EA505143EA525304F128
:100E40007F74994204F500344FEAC0204FEAC22271
:100E500008BF904200F09C804FEA13650FF24016E5
:100E6000765D4FEA134506FB05F7C7F1807706FB71
:100E700007F74FEAD737A7FB03687642C8F58038F3
:100E8000A7FB06CE38BFA8F1010807FB08E64FF024
:100E9000000EA6FB028CE6FB03CEDCF1000CCEF1CB
:100EA000004E38BFAEF1010EA6FB0C584FF0000704
:100EB0004FF00005E6FB0E87A1FB08C6A0FB07CE9E
:100EC00016EB0E0645F10005E1FB076515F1E04E56
:100ED0007EBFA4F580345FEA46066D4116F18007B7
:100EE00045F100054FEA17274FEA066647EA05670E
:100EF000A6F1DE46B6F1805F4FEA15251FD93846C8
:100F000024F0010C05EBC471BCF1FE6F01EB0C1178
:100F100002D8F0BCBDE8008124425CBF01F5801E10
:100F20009EEAC47F02D4F0BCBDE80081244238D4DC
:100F3000F0BCA1F1C041BDE8004100F0C1B94FEAE9
:100F4000D22242EA43524FEAD323A7FB02864FEA5A
:100F5000D02040EA415007FB03661EEA0E0F4FEA1D
:100F6000D12105FB026658BFA6EB0056B6EB005632
:100F70004FEA520E4EEAC37E18EB0E0E56EB530E9E
:100F8000BDD518EB02085E417F1C55F10005B6E7A0
:100F90004FF480154FF000074FF000064FF00008A7
:100FA000ADE7F0BC4FF0000001F1C04101F000419D
:100FB000BDE8008111EA0C1F0CEA131500D00CE00B
:100FC00013EA0C1F00F025804FF00000F0BC81EA0E
:100FD000030101F00041BDE80081F0BCBDE8004123
:100FE00081EA030100F06CB9F0BCBDE8004170B5C6
:100FF00000F018F9097EFC3E00F007B881EA030111
:101000004FF0000001F00041704781EA030100F059
:1010100057B9F0BCBDE800414FF0000021497047CE
:10102000FFFDFBF9F7F5F4F2F0EEEDEBE9E8E6E4AD
:10103000E3E1E0DEDDDBDAD8D7D5D4D3D1D0CFCD34
:10104000CCCBCAC8C7C6C5C4C2C1C0BFBEBDBCBB6D
:10105000BAB9B8B7B6B5B4B3B2B1B0AFAEADACAB68
:10106000AAA9A8A8A7A6A5A4A3A3A2A1A09F9F9E42
:101070009D9C9C9B9A9999989797969595949393F4
:10108000929191908F8F8E8E8D8C8C8B8B8A89898B
:10109000888887878685858484838382828181800E
:1010A0000000FF070000F87FB0FA80F310FA03F1A8
:1010B0000AD0C3F11D0303F580634FEA41504FEAA4
:1010C000035202EBD12170474FF00000704700003F
:1010D000DFF848C170B51CEA111E1EBF1CEA1315CB
:1010E0009EEA0C0F95EA0C0F00F06F8081EA030472
:1010F00023EA4C134EEAD47E21EA4C1141F48011CC
:1011000043F48013AE44A1FB024CA0FB0365AEF197
:101110007F7E361955EB0C05A1FB034C4CF1000307
:10112000A0FB021C16EB0C06654153F100030942BB
:1011300018BF46F0010613F4007F0BD14FEA0331CC
:101140004FEA0530340341EA155140EA16506FF07A
:1011500003020AE04FEAC3214FEAC520F40241EA44
:10116000555140EA56506FF0020202EB2E4201EB5D
:10117000025585EACE710AD05FEA440C18BF24F00C
:10118000004450F1000041F1000120EAD47040F227
:10119000FE7C624500D270BDA84214BF4FF080446F
:1011A0004FF04044002E08BF0024BEF1806FA8BF5E
:1011B000A1F1C041BDE8704080F282804FF0000094
:1011C00001F1C04101F0004170479EEA0C0F0CEAAA
:1011D000131518BF95EA0C0F06D04FF0000081EAF6
:1011E000030E0EF0004170BD00F01CF88900013EB6
:1011F00000F007B800F009B84FEA430C5FEA5C5C06
:1012000008D081EA030100F05BB84FEA410C5FEAC5
:101210005C5CF6D14FF00000014970470000FF0709
:101220000000F87F0EF1020E2EF0030E5EF8046B44
:10123000364205D4012A43EB030515F5001F12D8E9
:10124000012841EB010C1CF5001F0CD80ED14FEA10
:10125000D17C15F5001F0CEB4C0C0CF1020C08BFF7
:101260004CEBD37C04E04FF0080C01E04FEAD37C58
:101270000CEB4C0526FA05F606F00706B6F1040C51
:1012800006D20EEB860CBDE870404CF0010C6047B6
:10129000DFE80CF0090B02024FF000414FF00000B4
:1012A000A1F5002170BD19461046012851EB01043B
:1012B00018BFD4F5001484BF002001F0004170BDB8
:1012C0000808A0F500114FEA31017047C10DD1F1B6
:1012D0009E0206DB4FEA002343F0004323FA02F0AC
:1012E0007047004207D54FEA4001B1F1FE4F02D2EC
:1012F0004FF00000704710B500F007F849922480C5
:10130000002070476FEA200070470EF1020E2EF0A9
:10131000030E5EF8044B244204D44FEA4102B2F1BA
:101320007F4F11D84FEA4003B3F17F4F0CD80ED155
:101330004FEAD07CB2F17F4F0CEB4C0C0CF1020C5D
:1013400008BF4CEBD17C04E04FF0080C01E04FEA01
:10135000D17C0CEB4C0324FA03F404F00704B4F141
:10136000040C06D20EEB840CBDE810404CF0010CCE
:101370006047DFE80CF0070802024FF00040A0F5DC
:10138000800010BD0846420018BFD2F1807288BFAD
:1013900000F0004010BDFF2141EAD050C005704769
:1013A000C013000800000020200000005C010008BD
:1013B000E013000820000020C006000078010008AB
:1013C00057010000000000000000000000366E0120
:1013D00000000000000000000102030406070809E5
:0400000508000121CD
:00000001FF
